{
  "_format": "hh-sol-artifact-1",
  "contractName": "DappLottery",
  "sourceName": "contracts/DappLottery.sol",
  "abi": [
    {
      "inputs": [
        {
          "internalType": "uint256",
          "name": "_servicePercent",
          "type": "uint256"
        }
      ],
      "stateMutability": "nonpayable",
      "type": "constructor"
    },
    {
      "anonymous": false,
      "inputs": [
        {
          "indexed": true,
          "internalType": "address",
          "name": "previousOwner",
          "type": "address"
        },
        {
          "indexed": true,
          "internalType": "address",
          "name": "newOwner",
          "type": "address"
        }
      ],
      "name": "OwnershipTransferred",
      "type": "event"
    },
    {
      "inputs": [
        {
          "internalType": "uint256",
          "name": "id",
          "type": "uint256"
        },
        {
          "internalType": "uint256",
          "name": "luckyNumberId",
          "type": "uint256"
        }
      ],
      "name": "buyTicket",
      "outputs": [],
      "stateMutability": "payable",
      "type": "function"
    },
    {
      "inputs": [
        {
          "internalType": "string",
          "name": "title",
          "type": "string"
        },
        {
          "internalType": "string",
          "name": "description",
          "type": "string"
        },
        {
          "internalType": "string",
          "name": "image",
          "type": "string"
        },
        {
          "internalType": "uint256",
          "name": "prize",
          "type": "uint256"
        },
        {
          "internalType": "uint256",
          "name": "ticketPrice",
          "type": "uint256"
        },
        {
          "internalType": "uint256",
          "name": "expiresAt",
          "type": "uint256"
        }
      ],
      "name": "createLottery",
      "outputs": [],
      "stateMutability": "nonpayable",
      "type": "function"
    },
    {
      "inputs": [],
      "name": "getLotteries",
      "outputs": [
        {
          "components": [
            {
              "internalType": "uint256",
              "name": "id",
              "type": "uint256"
            },
            {
              "internalType": "string",
              "name": "title",
              "type": "string"
            },
            {
              "internalType": "string",
              "name": "description",
              "type": "string"
            },
            {
              "internalType": "string",
              "name": "image",
              "type": "string"
            },
            {
              "internalType": "uint256",
              "name": "prize",
              "type": "uint256"
            },
            {
              "internalType": "uint256",
              "name": "ticketPrice",
              "type": "uint256"
            },
            {
              "internalType": "uint256",
              "name": "participants",
              "type": "uint256"
            },
            {
              "internalType": "uint256",
              "name": "winners",
              "type": "uint256"
            },
            {
              "internalType": "bool",
              "name": "drawn",
              "type": "bool"
            },
            {
              "internalType": "address",
              "name": "owner",
              "type": "address"
            },
            {
              "internalType": "uint256",
              "name": "createdAt",
              "type": "uint256"
            },
            {
              "internalType": "uint256",
              "name": "expiresAt",
              "type": "uint256"
            }
          ],
          "internalType": "struct DappLottery.LotteryStruct[]",
          "name": "Lotteries",
          "type": "tuple[]"
        }
      ],
      "stateMutability": "view",
      "type": "function"
    },
    {
      "inputs": [
        {
          "internalType": "uint256",
          "name": "id",
          "type": "uint256"
        }
      ],
      "name": "getLottery",
      "outputs": [
        {
          "components": [
            {
              "internalType": "uint256",
              "name": "id",
              "type": "uint256"
            },
            {
              "internalType": "string",
              "name": "title",
              "type": "string"
            },
            {
              "internalType": "string",
              "name": "description",
              "type": "string"
            },
            {
              "internalType": "string",
              "name": "image",
              "type": "string"
            },
            {
              "internalType": "uint256",
              "name": "prize",
              "type": "uint256"
            },
            {
              "internalType": "uint256",
              "name": "ticketPrice",
              "type": "uint256"
            },
            {
              "internalType": "uint256",
              "name": "participants",
              "type": "uint256"
            },
            {
              "internalType": "uint256",
              "name": "winners",
              "type": "uint256"
            },
            {
              "internalType": "bool",
              "name": "drawn",
              "type": "bool"
            },
            {
              "internalType": "address",
              "name": "owner",
              "type": "address"
            },
            {
              "internalType": "uint256",
              "name": "createdAt",
              "type": "uint256"
            },
            {
              "internalType": "uint256",
              "name": "expiresAt",
              "type": "uint256"
            }
          ],
          "internalType": "struct DappLottery.LotteryStruct",
          "name": "",
          "type": "tuple"
        }
      ],
      "stateMutability": "view",
      "type": "function"
    },
    {
      "inputs": [
        {
          "internalType": "uint256",
          "name": "id",
          "type": "uint256"
        }
      ],
      "name": "getLotteryLuckyNumbers",
      "outputs": [
        {
          "internalType": "string[]",
          "name": "",
          "type": "string[]"
        }
      ],
      "stateMutability": "view",
      "type": "function"
    },
    {
      "inputs": [
        {
          "internalType": "uint256",
          "name": "id",
          "type": "uint256"
        }
      ],
      "name": "getLotteryParticipants",
      "outputs": [
        {
          "components": [
            {
              "internalType": "address",
              "name": "account",
              "type": "address"
            },
            {
              "internalType": "string",
              "name": "lotteryNumber",
              "type": "string"
            },
            {
              "internalType": "bool",
              "name": "paid",
              "type": "bool"
            }
          ],
          "internalType": "struct DappLottery.ParticipantStruct[]",
          "name": "",
          "type": "tuple[]"
        }
      ],
      "stateMutability": "view",
      "type": "function"
    },
    {
      "inputs": [
        {
          "internalType": "uint256",
          "name": "id",
          "type": "uint256"
        }
      ],
      "name": "getLotteryResult",
      "outputs": [
        {
          "components": [
            {
              "internalType": "uint256",
              "name": "id",
              "type": "uint256"
            },
            {
              "internalType": "bool",
              "name": "completed",
              "type": "bool"
            },
            {
              "internalType": "bool",
              "name": "paidout",
              "type": "bool"
            },
            {
              "internalType": "uint256",
              "name": "timestamp",
              "type": "uint256"
            },
            {
              "internalType": "uint256",
              "name": "sharePerWinner",
              "type": "uint256"
            },
            {
              "components": [
                {
                  "internalType": "address",
                  "name": "account",
                  "type": "address"
                },
                {
                  "internalType": "string",
                  "name": "lotteryNumber",
                  "type": "string"
                },
                {
                  "internalType": "bool",
                  "name": "paid",
                  "type": "bool"
                }
              ],
              "internalType": "struct DappLottery.ParticipantStruct[]",
              "name": "winners",
              "type": "tuple[]"
            }
          ],
          "internalType": "struct DappLottery.LotteryResultStruct",
          "name": "",
          "type": "tuple"
        }
      ],
      "stateMutability": "view",
      "type": "function"
    },
    {
      "inputs": [
        {
          "internalType": "uint256",
          "name": "id",
          "type": "uint256"
        },
        {
          "internalType": "string[]",
          "name": "luckyNumbers",
          "type": "string[]"
        }
      ],
      "name": "importLuckyNumbers",
      "outputs": [],
      "stateMutability": "nonpayable",
      "type": "function"
    },
    {
      "inputs": [],
      "name": "owner",
      "outputs": [
        {
          "internalType": "address",
          "name": "",
          "type": "address"
        }
      ],
      "stateMutability": "view",
      "type": "function"
    },
    {
      "inputs": [
        {
          "internalType": "uint256",
          "name": "id",
          "type": "uint256"
        },
        {
          "internalType": "uint256",
          "name": "numOfWinners",
          "type": "uint256"
        }
      ],
      "name": "randomlySelectWinners",
      "outputs": [],
      "stateMutability": "nonpayable",
      "type": "function"
    },
    {
      "inputs": [],
      "name": "renounceOwnership",
      "outputs": [],
      "stateMutability": "nonpayable",
      "type": "function"
    },
    {
      "inputs": [],
      "name": "serviceBalance",
      "outputs": [
        {
          "internalType": "uint256",
          "name": "",
          "type": "uint256"
        }
      ],
      "stateMutability": "view",
      "type": "function"
    },
    {
      "inputs": [],
      "name": "servicePercent",
      "outputs": [
        {
          "internalType": "uint256",
          "name": "",
          "type": "uint256"
        }
      ],
      "stateMutability": "view",
      "type": "function"
    },
    {
      "inputs": [
        {
          "internalType": "address",
          "name": "newOwner",
          "type": "address"
        }
      ],
      "name": "transferOwnership",
      "outputs": [],
      "stateMutability": "nonpayable",
      "type": "function"
    }
  ],
  "bytecode": "0x60806040523480156200001157600080fd5b5060405162003cd638038062003cd6833981810160405281019062000037919062000148565b620000576200004b6200006560201b60201c565b6200006d60201b60201c565b8060078190555050620001a3565b600033905090565b60008060009054906101000a900473ffffffffffffffffffffffffffffffffffffffff169050816000806101000a81548173ffffffffffffffffffffffffffffffffffffffff021916908373ffffffffffffffffffffffffffffffffffffffff1602179055508173ffffffffffffffffffffffffffffffffffffffff168173ffffffffffffffffffffffffffffffffffffffff167f8be0079c531659141344cd1fd0a4f28419497f9722a3daafe3b4186f6b6457e060405160405180910390a35050565b600081519050620001428162000189565b92915050565b60006020828403121562000161576200016062000184565b5b6000620001718482850162000131565b91505092915050565b6000819050919050565b600080fd5b62000194816200017a565b8114620001a057600080fd5b50565b613b2380620001b36000396000f3fe6080604052600436106100dd5760003560e01c806392e845f61161007f578063bcc82ec411610059578063bcc82ec4146102b1578063e2e43516146102dc578063e8d490f114610305578063f2fde38b14610330576100dd565b806392e845f61461020e578063949ee7521461024b578063ad19c83914610288576100dd565b806370b261ae116100bb57806370b261ae14610164578063715018a61461018f5780638772d2dd146101a65780638da5cb5b146101e3576100dd565b8063298ec208146100e257806335ea2063146100fe57806368fb2eba14610127575b600080fd5b6100fc60048036038101906100f79190612743565b610359565b005b34801561010a57600080fd5b50610125600480360381019061012091906126e7565b610657565b005b34801561013357600080fd5b5061014e600480360381019061014991906126ba565b6107c4565b60405161015b9190612ffb565b60405180910390f35b34801561017057600080fd5b50610179610939565b6040516101869190613241565b60405180910390f35b34801561019b57600080fd5b506101a461093f565b005b3480156101b257600080fd5b506101cd60048036038101906101c891906126ba565b610953565b6040516101da91906131fd565b60405180910390f35b3480156101ef57600080fd5b506101f8610b36565b6040516102059190612f9c565b60405180910390f35b34801561021a57600080fd5b50610235600480360381019061023091906126ba565b610b5f565b604051610242919061321f565b60405180910390f35b34801561025757600080fd5b50610272600480360381019061026d91906126ba565b610dfa565b60405161027f9190612fb7565b60405180910390f35b34801561029457600080fd5b506102af60048036038101906102aa91906125d9565b610ee6565b005b3480156102bd57600080fd5b506102c6611257565b6040516102d39190612fd9565b60405180910390f35b3480156102e857600080fd5b5061030360048036038101906102fe9190612743565b61159c565b005b34801561031157600080fd5b5061031a611c9e565b6040516103279190613241565b60405180910390f35b34801561033c57600080fd5b50610357600480360381019061035291906125ac565b611ca4565b005b60056000838152602001908152602001600020600082815260200190815260200160002060009054906101000a900460ff16156103cb576040517f08c379a00000000000000000000000000000000000000000000000000000000081526004016103c29061313d565b60405180910390fd5b6002600083815260200190815260200160002060050154341015610424576040517f08c379a000000000000000000000000000000000000000000000000000000000815260040161041b9061315d565b60405180910390fd5b60026000838152602001908152602001600020600601600081548092919061044b906135fe565b91905055506003600083815260200190815260200160002060405180606001604052803373ffffffffffffffffffffffffffffffffffffffff1681526020016004600086815260200190815260200160002084815481106104af576104ae61370f565b5b9060005260206000200180546104c49061359b565b80601f01602080910402602001604051908101604052809291908181526020018280546104f09061359b565b801561053d5780601f106105125761010080835404028352916020019161053d565b820191906000526020600020905b81548152906001019060200180831161052057829003601f168201915b5050505050815260200160001515815250908060018154018082558091505060019003906000526020600020906003020160009091909190915060008201518160000160006101000a81548173ffffffffffffffffffffffffffffffffffffffff021916908373ffffffffffffffffffffffffffffffffffffffff16021790555060208201518160010190805190602001906105da929190612203565b5060408201518160020160006101000a81548160ff0219169083151502179055505050600160056000848152602001908152602001600020600083815260200190815260200160002060006101000a81548160ff021916908315150217905550346008600082825461064c91906133d2565b925050819055505050565b600081511161069b576040517f08c379a0000000000000000000000000000000000000000000000000000000008152600401610692906130dd565b60405180910390fd5b3373ffffffffffffffffffffffffffffffffffffffff166002600084815260200190815260200160002060080160019054906101000a900473ffffffffffffffffffffffffffffffffffffffff1673ffffffffffffffffffffffffffffffffffffffff161461073f576040517f08c379a00000000000000000000000000000000000000000000000000000000081526004016107369061319d565b60405180910390fd5b6001600460008481526020019081526020016000208054905010610798576040517f08c379a000000000000000000000000000000000000000000000000000000000815260040161078f9061317d565b60405180910390fd5b806004600084815260200190815260200160002090805190602001906107bf929190612289565b505050565b606060036000838152602001908152602001600020805480602002602001604051908101604052809291908181526020016000905b8282101561092e57838290600052602060002090600302016040518060600160405290816000820160009054906101000a900473ffffffffffffffffffffffffffffffffffffffff1673ffffffffffffffffffffffffffffffffffffffff1673ffffffffffffffffffffffffffffffffffffffff1681526020016001820180546108829061359b565b80601f01602080910402602001604051908101604052809291908181526020018280546108ae9061359b565b80156108fb5780601f106108d0576101008083540402835291602001916108fb565b820191906000526020600020905b8154815290600101906020018083116108de57829003601f168201915b505050505081526020016002820160009054906101000a900460ff161515151581525050815260200190600101906107f9565b505050509050919050565b60085481565b610947611d28565b6109516000611da6565b565b61095b6122e9565b600660008381526020019081526020016000206040518060c0016040529081600082015481526020016001820160009054906101000a900460ff161515151581526020016001820160019054906101000a900460ff16151515158152602001600282015481526020016003820154815260200160048201805480602002602001604051908101604052809291908181526020016000905b82821015610b2757838290600052602060002090600302016040518060600160405290816000820160009054906101000a900473ffffffffffffffffffffffffffffffffffffffff1673ffffffffffffffffffffffffffffffffffffffff1673ffffffffffffffffffffffffffffffffffffffff168152602001600182018054610a7b9061359b565b80601f0160208091040260200160405190810160405280929190818152602001828054610aa79061359b565b8015610af45780601f10610ac957610100808354040283529160200191610af4565b820191906000526020600020905b815481529060010190602001808311610ad757829003601f168201915b505050505081526020016002820160009054906101000a900460ff161515151581525050815260200190600101906109f2565b50505050815250509050919050565b60008060009054906101000a900473ffffffffffffffffffffffffffffffffffffffff16905090565b610b67612323565b600260008381526020019081526020016000206040518061018001604052908160008201548152602001600182018054610ba09061359b565b80601f0160208091040260200160405190810160405280929190818152602001828054610bcc9061359b565b8015610c195780601f10610bee57610100808354040283529160200191610c19565b820191906000526020600020905b815481529060010190602001808311610bfc57829003601f168201915b50505050508152602001600282018054610c329061359b565b80601f0160208091040260200160405190810160405280929190818152602001828054610c5e9061359b565b8015610cab5780601f10610c8057610100808354040283529160200191610cab565b820191906000526020600020905b815481529060010190602001808311610c8e57829003601f168201915b50505050508152602001600382018054610cc49061359b565b80601f0160208091040260200160405190810160405280929190818152602001828054610cf09061359b565b8015610d3d5780601f10610d1257610100808354040283529160200191610d3d565b820191906000526020600020905b815481529060010190602001808311610d2057829003601f168201915b50505050508152602001600482015481526020016005820154815260200160068201548152602001600782015481526020016008820160009054906101000a900460ff161515151581526020016008820160019054906101000a900473ffffffffffffffffffffffffffffffffffffffff1673ffffffffffffffffffffffffffffffffffffffff1673ffffffffffffffffffffffffffffffffffffffff16815260200160098201548152602001600a820154815250509050919050565b606060046000838152602001908152602001600020805480602002602001604051908101604052809291908181526020016000905b82821015610edb578382906000526020600020018054610e4e9061359b565b80601f0160208091040260200160405190810160405280929190818152602001828054610e7a9061359b565b8015610ec75780601f10610e9c57610100808354040283529160200191610ec7565b820191906000526020600020905b815481529060010190602001808311610eaa57829003601f168201915b505050505081526020019060010190610e2f565b505050509050919050565b6000865111610f2a576040517f08c379a0000000000000000000000000000000000000000000000000000000008152600401610f219061303d565b60405180910390fd5b6000855111610f6e576040517f08c379a0000000000000000000000000000000000000000000000000000000008152600401610f65906130fd565b60405180910390fd5b6000845111610fb2576040517f08c379a0000000000000000000000000000000000000000000000000000000008152600401610fa99061309d565b60405180910390fd5b60008311610ff5576040517f08c379a0000000000000000000000000000000000000000000000000000000008152600401610fec906131dd565b60405180910390fd5b60008211611038576040517f08c379a000000000000000000000000000000000000000000000000000000000815260040161102f906131bd565b60405180910390fd5b611040611e6a565b8111611081576040517f08c379a0000000000000000000000000000000000000000000000000000000008152600401611078906130bd565b60405180910390fd5b61108b6001611e8f565b611093612323565b61109d6001611ea5565b81600001818152505086816020018190525085816040018190525084816060018190525083816080018181525050828160a00181815250503381610120019073ffffffffffffffffffffffffffffffffffffffff16908173ffffffffffffffffffffffffffffffffffffffff1681525050611116611e6a565b816101400181815250508181610160018181525050806002600083600001518152602001908152602001600020600082015181600001556020820151816001019080519060200190611169929190612203565b506040820151816002019080519060200190611186929190612203565b5060608201518160030190805190602001906111a3929190612203565b506080820151816004015560a0820151816005015560c0820151816006015560e082015181600701556101008201518160080160006101000a81548160ff0219169083151502179055506101208201518160080160016101000a81548173ffffffffffffffffffffffffffffffffffffffff021916908373ffffffffffffffffffffffffffffffffffffffff160217905550610140820151816009015561016082015181600a015590505050505050505050565b60606112636001611ea5565b67ffffffffffffffff81111561127c5761127b61373e565b5b6040519080825280602002602001820160405280156112b557816020015b6112a2612323565b81526020019060019003908161129a5790505b5090506000600190505b6112c96001611ea5565b8111611598576002600082815260200190815260200160002060405180610180016040529081600082015481526020016001820180546113089061359b565b80601f01602080910402602001604051908101604052809291908181526020018280546113349061359b565b80156113815780601f1061135657610100808354040283529160200191611381565b820191906000526020600020905b81548152906001019060200180831161136457829003601f168201915b5050505050815260200160028201805461139a9061359b565b80601f01602080910402602001604051908101604052809291908181526020018280546113c69061359b565b80156114135780601f106113e857610100808354040283529160200191611413565b820191906000526020600020905b8154815290600101906020018083116113f657829003601f168201915b5050505050815260200160038201805461142c9061359b565b80601f01602080910402602001604051908101604052809291908181526020018280546114589061359b565b80156114a55780601f1061147a576101008083540402835291602001916114a5565b820191906000526020600020905b81548152906001019060200180831161148857829003601f168201915b50505050508152602001600482015481526020016005820154815260200160068201548152602001600782015481526020016008820160009054906101000a900460ff161515151581526020016008820160019054906101000a900473ffffffffffffffffffffffffffffffffffffffff1673ffffffffffffffffffffffffffffffffffffffff1673ffffffffffffffffffffffffffffffffffffffff16815260200160098201548152602001600a820154815250508260018361156991906134b3565b8151811061157a5761157961370f565b5b60200260200101819052508080611590906135fe565b9150506112bf565b5090565b3373ffffffffffffffffffffffffffffffffffffffff166002600084815260200190815260200160002060080160019054906101000a900473ffffffffffffffffffffffffffffffffffffffff1673ffffffffffffffffffffffffffffffffffffffff16148061163e575061160f610b36565b73ffffffffffffffffffffffffffffffffffffffff163373ffffffffffffffffffffffffffffffffffffffff16145b61167d576040517f08c379a00000000000000000000000000000000000000000000000000000000081526004016116749061319d565b60405180910390fd5b6006600083815260200190815260200160002060010160009054906101000a900460ff16156116e1576040517f08c379a00000000000000000000000000000000000000000000000000000000081526004016116d89061301d565b60405180910390fd5b600360008381526020019081526020016000208054905081111561173a576040517f08c379a00000000000000000000000000000000000000000000000000000000081526004016117319061307d565b60405180910390fd5b60008167ffffffffffffffff8111156117565761175561373e565b5b60405190808252806020026020018201604052801561178f57816020015b61177c61239c565b8152602001906001900390816117745790505b509050600060036000858152602001908152602001600020805480602002602001604051908101604052809291908181526020016000905b828210156118fc57838290600052602060002090600302016040518060600160405290816000820160009054906101000a900473ffffffffffffffffffffffffffffffffffffffff1673ffffffffffffffffffffffffffffffffffffffff1673ffffffffffffffffffffffffffffffffffffffff1681526020016001820180546118509061359b565b80601f016020809104026020016040519081016040528092919081815260200182805461187c9061359b565b80156118c95780601f1061189e576101008083540402835291602001916118c9565b820191906000526020600020905b8154815290600101906020018083116118ac57829003601f168201915b505050505081526020016002820160009054906101000a900460ff161515151581525050815260200190600101906117c7565b5050505090506000815167ffffffffffffffff81111561191f5761191e61373e565b5b60405190808252806020026020018201604052801561194d5781602001602082028036833780820191505090505b50905060005b825181101561198f57808282815181106119705761196f61370f565b5b6020026020010181815250508080611987906135fe565b915050611953565b506000600183516119a091906134b3565b90505b60018110611a875760006001826119ba91906133d2565b6119c2611e6a565b836040516020016119d4929190612f70565b6040516020818303038152906040528051906020012060001c6119f79190613651565b90506000838281518110611a0e57611a0d61370f565b5b60200260200101519050838381518110611a2b57611a2a61370f565b5b6020026020010151848381518110611a4657611a4561370f565b5b60200260200101818152505080848481518110611a6657611a6561370f565b5b60200260200101818152505050508080611a7f90613571565b9150506119a3565b5060005b84811015611bd95782828281518110611aa757611aa661370f565b5b602002602001015181518110611ac057611abf61370f565b5b6020026020010151848281518110611adb57611ada61370f565b5b602002602001018190525060066000878152602001908152602001600020600401848281518110611b0f57611b0e61370f565b5b6020026020010151908060018154018082558091505060019003906000526020600020906003020160009091909190915060008201518160000160006101000a81548173ffffffffffffffffffffffffffffffffffffffff021916908373ffffffffffffffffffffffffffffffffffffffff1602179055506020820151816001019080519060200190611ba3929190612203565b5060408201518160020160006101000a81548160ff02191690831515021790555050508080611bd1906135fe565b915050611a8b565b5060016006600087815260200190815260200160002060010160006101000a81548160ff021916908315150217905550611c11611e6a565b60066000878152602001908152602001600020600201819055506006600086815260200190815260200160002060040180549050600260008781526020019081526020016000206007018190555060016002600087815260200190815260200160002060080160006101000a81548160ff021916908315150217905550611c9785611eb3565b5050505050565b60075481565b611cac611d28565b600073ffffffffffffffffffffffffffffffffffffffff168173ffffffffffffffffffffffffffffffffffffffff161415611d1c576040517f08c379a0000000000000000000000000000000000000000000000000000000008152600401611d139061305d565b60405180910390fd5b611d2581611da6565b50565b611d30612180565b73ffffffffffffffffffffffffffffffffffffffff16611d4e610b36565b73ffffffffffffffffffffffffffffffffffffffff1614611da4576040517f08c379a0000000000000000000000000000000000000000000000000000000008152600401611d9b9061311d565b60405180910390fd5b565b60008060009054906101000a900473ffffffffffffffffffffffffffffffffffffffff169050816000806101000a81548173ffffffffffffffffffffffffffffffffffffffff021916908373ffffffffffffffffffffffffffffffffffffffff1602179055508173ffffffffffffffffffffffffffffffffffffffff168173ffffffffffffffffffffffffffffffffffffffff167f8be0079c531659141344cd1fd0a4f28419497f9722a3daafe3b4186f6b6457e060405160405180910390a35050565b6000806103e88042611e7c9190613459565b611e8691906133d2565b90508091505090565b6001816000016000828254019250508190555050565b600081600001549050919050565b600060066000838152602001908152602001600020600401805480602002602001604051908101604052809291908181526020016000905b8282101561202057838290600052602060002090600302016040518060600160405290816000820160009054906101000a900473ffffffffffffffffffffffffffffffffffffffff1673ffffffffffffffffffffffffffffffffffffffff1673ffffffffffffffffffffffffffffffffffffffff168152602001600182018054611f749061359b565b80601f0160208091040260200160405190810160405280929190818152602001828054611fa09061359b565b8015611fed5780601f10611fc257610100808354040283529160200191611fed565b820191906000526020600020905b815481529060010190602001808311611fd057829003601f168201915b505050505081526020016002820160009054906101000a900460ff16151515158152505081526020019060010190611eeb565b5050505090506000600360008481526020019081526020016000208054905060026000858152602001908152602001600020600501546120609190613459565b905060006064600754836120749190613459565b61207e9190613428565b90506000818361208e91906134b3565b9050600084518261209f9190613428565b905060005b85518110156120e8576120d58682815181106120c3576120c261370f565b5b60200260200101516000015183612188565b80806120e0906135fe565b9150506120a4565b506120fa6120f4610b36565b84612188565b836008600082825461210c91906134b3565b9250508190555085600660008881526020019081526020016000206000018190555060016006600088815260200190815260200160002060010160016101000a81548160ff021916908315150217905550806006600088815260200190815260200160002060030181905550505050505050565b600033905090565b60008273ffffffffffffffffffffffffffffffffffffffff16826040516121ae90612f5b565b60006040518083038185875af1925050503d80600081146121eb576040519150601f19603f3d011682016040523d82523d6000602084013e6121f0565b606091505b50509050806121fe57600080fd5b505050565b82805461220f9061359b565b90600052602060002090601f0160209004810192826122315760008555612278565b82601f1061224a57805160ff1916838001178555612278565b82800160010185558215612278579182015b8281111561227757825182559160200191906001019061225c565b5b50905061228591906123d5565b5090565b8280548282559060005260206000209081019282156122d8579160200282015b828111156122d75782518290805190602001906122c7929190612203565b50916020019190600101906122a9565b5b5090506122e591906123f2565b5090565b6040518060c00160405280600081526020016000151581526020016000151581526020016000815260200160008152602001606081525090565b6040518061018001604052806000815260200160608152602001606081526020016060815260200160008152602001600081526020016000815260200160008152602001600015158152602001600073ffffffffffffffffffffffffffffffffffffffff16815260200160008152602001600081525090565b6040518060600160405280600073ffffffffffffffffffffffffffffffffffffffff168152602001606081526020016000151581525090565b5b808211156123ee5760008160009055506001016123d6565b5090565b5b8082111561241257600081816124099190612416565b506001016123f3565b5090565b5080546124229061359b565b6000825580601f106124345750612453565b601f01602090049060005260206000209081019061245291906123d5565b5b50565b600061246961246484613281565b61325c565b9050808382526020820190508285602086028201111561248c5761248b613772565b5b60005b858110156124da57813567ffffffffffffffff8111156124b2576124b161376d565b5b8086016124bf8982612569565b8552602085019450602084019350505060018101905061248f565b5050509392505050565b60006124f76124f2846132ad565b61325c565b90508281526020810184848401111561251357612512613777565b5b61251e84828561352f565b509392505050565b60008135905061253581613abf565b92915050565b600082601f8301126125505761254f61376d565b5b8135612560848260208601612456565b91505092915050565b600082601f83011261257e5761257d61376d565b5b813561258e8482602086016124e4565b91505092915050565b6000813590506125a681613ad6565b92915050565b6000602082840312156125c2576125c1613781565b5b60006125d084828501612526565b91505092915050565b60008060008060008060c087890312156125f6576125f5613781565b5b600087013567ffffffffffffffff8111156126145761261361377c565b5b61262089828a01612569565b965050602087013567ffffffffffffffff8111156126415761264061377c565b5b61264d89828a01612569565b955050604087013567ffffffffffffffff81111561266e5761266d61377c565b5b61267a89828a01612569565b945050606061268b89828a01612597565b935050608061269c89828a01612597565b92505060a06126ad89828a01612597565b9150509295509295509295565b6000602082840312156126d0576126cf613781565b5b60006126de84828501612597565b91505092915050565b600080604083850312156126fe576126fd613781565b5b600061270c85828601612597565b925050602083013567ffffffffffffffff81111561272d5761272c61377c565b5b6127398582860161253b565b9150509250929050565b6000806040838503121561275a57612759613781565b5b600061276885828601612597565b925050602061277985828601612597565b9150509250929050565b600061278f83836129c0565b905092915050565b60006127a38383612cb2565b905092915050565b60006127b78383612ed6565b905092915050565b6127c8816134e7565b82525050565b6127d7816134e7565b82525050565b60006127e88261330e565b6127f28185613361565b935083602082028501612804856132de565b8060005b8581101561284057848403895281516128218582612783565b945061282c8361333a565b925060208a01995050600181019050612808565b50829750879550505050505092915050565b600061285d82613319565b6128678185613372565b935083602082028501612879856132ee565b8060005b858110156128b557848403895281516128968582612797565b94506128a183613347565b925060208a0199505060018101905061287d565b50829750879550505050505092915050565b60006128d282613324565b6128dc8185613383565b9350836020820285016128ee856132fe565b8060005b8581101561292a578484038952815161290b85826127ab565b945061291683613354565b925060208a019950506001810190506128f2565b50829750879550505050505092915050565b600061294782613324565b6129518185613394565b935083602082028501612963856132fe565b8060005b8581101561299f578484038952815161298085826127ab565b945061298b83613354565b925060208a01995050600181019050612967565b50829750879550505050505092915050565b6129ba816134f9565b82525050565b60006129cb8261332f565b6129d581856133b0565b93506129e581856020860161353e565b6129ee81613786565b840191505092915050565b6000612a066023836133c1565b9150612a1182613797565b604082019050919050565b6000612a296015836133c1565b9150612a34826137e6565b602082019050919050565b6000612a4c6026836133c1565b9150612a578261380f565b604082019050919050565b6000612a6f6030836133c1565b9150612a7a8261385e565b604082019050919050565b6000612a926015836133c1565b9150612a9d826138ad565b602082019050919050565b6000612ab56027836133c1565b9150612ac0826138d6565b604082019050919050565b6000612ad8601c836133c1565b9150612ae382613925565b602082019050919050565b6000612afb601b836133c1565b9150612b068261394e565b602082019050919050565b6000612b1e6020836133c1565b9150612b2982613977565b602082019050919050565b6000612b416019836133c1565b9150612b4c826139a0565b602082019050919050565b6000612b646021836133c1565b9150612b6f826139c9565b604082019050919050565b6000612b876011836133c1565b9150612b9282613a18565b602082019050919050565b6000612baa6013836133c1565b9150612bb582613a41565b602082019050919050565b6000612bcd6000836133a5565b9150612bd882613a6a565b600082019050919050565b6000612bf0601a836133c1565b9150612bfb82613a6d565b602082019050919050565b6000612c136014836133c1565b9150612c1e82613a96565b602082019050919050565b600060c083016000830151612c416000860182612f26565b506020830151612c5460208601826129b1565b506040830151612c6760408601826129b1565b506060830151612c7a6060860182612f26565b506080830151612c8d6080860182612f26565b5060a083015184820360a0860152612ca582826128c7565b9150508091505092915050565b600061018083016000830151612ccb6000860182612f26565b5060208301518482036020860152612ce382826129c0565b91505060408301518482036040860152612cfd82826129c0565b91505060608301518482036060860152612d1782826129c0565b9150506080830151612d2c6080860182612f26565b5060a0830151612d3f60a0860182612f26565b5060c0830151612d5260c0860182612f26565b5060e0830151612d6560e0860182612f26565b50610100830151612d7a6101008601826129b1565b50610120830151612d8f6101208601826127bf565b50610140830151612da4610140860182612f26565b50610160830151612db9610160860182612f26565b508091505092915050565b600061018083016000830151612ddd6000860182612f26565b5060208301518482036020860152612df582826129c0565b91505060408301518482036040860152612e0f82826129c0565b91505060608301518482036060860152612e2982826129c0565b9150506080830151612e3e6080860182612f26565b5060a0830151612e5160a0860182612f26565b5060c0830151612e6460c0860182612f26565b5060e0830151612e7760e0860182612f26565b50610100830151612e8c6101008601826129b1565b50610120830151612ea16101208601826127bf565b50610140830151612eb6610140860182612f26565b50610160830151612ecb610160860182612f26565b508091505092915050565b6000606083016000830151612eee60008601826127bf565b5060208301518482036020860152612f0682826129c0565b9150506040830151612f1b60408601826129b1565b508091505092915050565b612f2f81613525565b82525050565b612f3e81613525565b82525050565b612f55612f5082613525565b613647565b82525050565b6000612f6682612bc0565b9150819050919050565b6000612f7c8285612f44565b602082019150612f8c8284612f44565b6020820191508190509392505050565b6000602082019050612fb160008301846127ce565b92915050565b60006020820190508181036000830152612fd181846127dd565b905092915050565b60006020820190508181036000830152612ff38184612852565b905092915050565b60006020820190508181036000830152613015818461293c565b905092915050565b60006020820190508181036000830152613036816129f9565b9050919050565b6000602082019050818103600083015261305681612a1c565b9050919050565b6000602082019050818103600083015261307681612a3f565b9050919050565b6000602082019050818103600083015261309681612a62565b9050919050565b600060208201905081810360008301526130b681612a85565b9050919050565b600060208201905081810360008301526130d681612aa8565b9050919050565b600060208201905081810360008301526130f681612acb565b9050919050565b6000602082019050818103600083015261311681612aee565b9050919050565b6000602082019050818103600083015261313681612b11565b9050919050565b6000602082019050818103600083015261315681612b34565b9050919050565b6000602082019050818103600083015261317681612b57565b9050919050565b6000602082019050818103600083015261319681612b7a565b9050919050565b600060208201905081810360008301526131b681612b9d565b9050919050565b600060208201905081810360008301526131d681612be3565b9050919050565b600060208201905081810360008301526131f681612c06565b9050919050565b600060208201905081810360008301526132178184612c29565b905092915050565b600060208201905081810360008301526132398184612dc4565b905092915050565b60006020820190506132566000830184612f35565b92915050565b6000613266613277565b905061327282826135cd565b919050565b6000604051905090565b600067ffffffffffffffff82111561329c5761329b61373e565b5b602082029050602081019050919050565b600067ffffffffffffffff8211156132c8576132c761373e565b5b6132d182613786565b9050602081019050919050565b6000819050602082019050919050565b6000819050602082019050919050565b6000819050602082019050919050565b600081519050919050565b600081519050919050565b600081519050919050565b600081519050919050565b6000602082019050919050565b6000602082019050919050565b6000602082019050919050565b600082825260208201905092915050565b600082825260208201905092915050565b600082825260208201905092915050565b600082825260208201905092915050565b600081905092915050565b600082825260208201905092915050565b600082825260208201905092915050565b60006133dd82613525565b91506133e883613525565b9250827fffffffffffffffffffffffffffffffffffffffffffffffffffffffffffffffff0382111561341d5761341c613682565b5b828201905092915050565b600061343382613525565b915061343e83613525565b92508261344e5761344d6136b1565b5b828204905092915050565b600061346482613525565b915061346f83613525565b9250817fffffffffffffffffffffffffffffffffffffffffffffffffffffffffffffffff04831182151516156134a8576134a7613682565b5b828202905092915050565b60006134be82613525565b91506134c983613525565b9250828210156134dc576134db613682565b5b828203905092915050565b60006134f282613505565b9050919050565b60008115159050919050565b600073ffffffffffffffffffffffffffffffffffffffff82169050919050565b6000819050919050565b82818337600083830152505050565b60005b8381101561355c578082015181840152602081019050613541565b8381111561356b576000848401525b50505050565b600061357c82613525565b915060008214156135905761358f613682565b5b600182039050919050565b600060028204905060018216806135b357607f821691505b602082108114156135c7576135c66136e0565b5b50919050565b6135d682613786565b810181811067ffffffffffffffff821117156135f5576135f461373e565b5b80604052505050565b600061360982613525565b91507fffffffffffffffffffffffffffffffffffffffffffffffffffffffffffffffff82141561363c5761363b613682565b5b600182019050919050565b6000819050919050565b600061365c82613525565b915061366783613525565b925082613677576136766136b1565b5b828206905092915050565b7f4e487b7100000000000000000000000000000000000000000000000000000000600052601160045260246000fd5b7f4e487b7100000000000000000000000000000000000000000000000000000000600052601260045260246000fd5b7f4e487b7100000000000000000000000000000000000000000000000000000000600052602260045260246000fd5b7f4e487b7100000000000000000000000000000000000000000000000000000000600052603260045260246000fd5b7f4e487b7100000000000000000000000000000000000000000000000000000000600052604160045260246000fd5b600080fd5b600080fd5b600080fd5b600080fd5b600080fd5b6000601f19601f8301169050919050565b7f4c6f7474657279206861766520616c7265616479206265656e20636f6d706c6560008201527f7465640000000000000000000000000000000000000000000000000000000000602082015250565b7f7469746c652063616e6e6f7420626520656d7074790000000000000000000000600082015250565b7f4f776e61626c653a206e6577206f776e657220697320746865207a65726f206160008201527f6464726573730000000000000000000000000000000000000000000000000000602082015250565b7f4e756d626572206f662077696e6e6572732065786365656473206e756d62657260008201527f206f66207061727469636970616e747300000000000000000000000000000000602082015250565b7f696d6167652063616e6e6f7420626520656d7074790000000000000000000000600082015250565b7f65787069726541742063616e6e6f74206265206c657373207468616e2074686560008201527f2066757475726500000000000000000000000000000000000000000000000000602082015250565b7f4c75636b79206e756d626572732063616e6e6f74206265207a65726f00000000600082015250565b7f6465736372697074696f6e2063616e6e6f7420626520656d7074790000000000600082015250565b7f4f776e61626c653a2063616c6c6572206973206e6f7420746865206f776e6572600082015250565b7f4c75636b79206e756d62657220616c7265616479207573656400000000000000600082015250565b7f696e73756666696369656e742065746865727320746f20627579207469636b6560008201527f7400000000000000000000000000000000000000000000000000000000000000602082015250565b7f416c72656164792067656e657261746564000000000000000000000000000000600082015250565b7f556e617574686f72697a656420656e7469747900000000000000000000000000600082015250565b50565b7f7469636b657450726963652063616e6e6f74206265207a65726f000000000000600082015250565b7f7072697a652063616e6e6f74206265207a65726f000000000000000000000000600082015250565b613ac8816134e7565b8114613ad357600080fd5b50565b613adf81613525565b8114613aea57600080fd5b5056fea264697066735822122023216255eb86e46e520d2b35e4fa1c727018fcda2a88b303c30b7a8429ae216164736f6c63430008070033",
  "linkReferences": {},
  "deployedLinkReferences": {}
}